:1000000029C0000037C0000035C0000033C0000028
:1000100031C000002FC000002DC000002BC0000028
:1000200029C0000027C0000025C0000023C0000038
:1000300021C000001FC000001DC000001BC0000048
:1000400019C0000017C0000015C0000013C0000058
:1000500011C0000011241FBECFE5D8E0DEBFCDBF28
:1000600020E0A0E6B0E001C01D92A436B207E1F79F
:100070005FD06AC0C5CFCF93DF9300D0CDB7DEB7D6
:100080009A8389831092600010926100109262003E
:1000900010926300E981FA81409160005091610003
:1000A000609162007091630020E43FE1E29FC00133
:1000B000E39F900DF29F900D1124092E000CAA0BC6
:1000C000BB0B481759076A077B076CF580916000E6
:1000D00090916100A0916200B09163000196A11D12
:1000E000B11D8093600090936100A0936200B09373
:1000F0006300E981FA814091600050916100609154
:10010000620070916300E29FC001E39F900DF29F37
:10011000900D1124092E000CAA0BBB0B4817590790
:100120006A077B079CF20F900F90DF91CF910895A3
:1001300081E08ABBC1E0CBBB88E893E19CDF1BBABE
:0C01400088E893E198DFF7CFF894FFCF38
:00000001FF
